{
  "contractName": "Delottery",
  "abi": [
    {
      "anonymous": false,
      "inputs": [
        {
          "indexed": false,
          "internalType": "uint256",
          "name": "id",
          "type": "uint256"
        },
        {
          "indexed": false,
          "internalType": "address",
          "name": "buyer",
          "type": "address"
        }
      ],
      "name": "BuyLotto",
      "type": "event"
    },
    {
      "constant": false,
      "inputs": [
        {
          "internalType": "uint256",
          "name": "_id",
          "type": "uint256"
        },
        {
          "internalType": "uint256",
          "name": "_buyCount",
          "type": "uint256"
        },
        {
          "internalType": "address",
          "name": "_owner",
          "type": "address"
        }
      ],
      "name": "addLotto",
      "outputs": [],
      "payable": false,
      "stateMutability": "nonpayable",
      "type": "function"
    },
    {
      "constant": false,
      "inputs": [
        {
          "internalType": "uint256",
          "name": "_Maxid",
          "type": "uint256"
        }
      ],
      "name": "addLottoByMaxId",
      "outputs": [
        {
          "internalType": "bool",
          "name": "",
          "type": "bool"
        }
      ],
      "payable": false,
      "stateMutability": "nonpayable",
      "type": "function"
    },
    {
      "constant": true,
      "inputs": [
        {
          "internalType": "uint256",
          "name": "_id",
          "type": "uint256"
        }
      ],
      "name": "getBuyCount",
      "outputs": [
        {
          "internalType": "uint256",
          "name": "",
          "type": "uint256"
        }
      ],
      "payable": false,
      "stateMutability": "view",
      "type": "function"
    },
    {
      "constant": false,
      "inputs": [
        {
          "internalType": "uint256",
          "name": "_id",
          "type": "uint256"
        },
        {
          "internalType": "uint256",
          "name": "price",
          "type": "uint256"
        }
      ],
      "name": "buyLotto",
      "outputs": [
        {
          "internalType": "uint256",
          "name": "_buyId",
          "type": "uint256"
        },
        {
          "internalType": "uint256",
          "name": "_buyprice",
          "type": "uint256"
        },
        {
          "internalType": "bool",
          "name": "_buyResult",
          "type": "bool"
        }
      ],
      "payable": false,
      "stateMutability": "nonpayable",
      "type": "function"
    }
  ],
  "bytecode": "0x608060405234801561001057600080fd5b506104c1806100206000396000f3fe608060405234801561001057600080fd5b506004361061004c5760003560e01c8063019a7ab1146100515780632a75783b14610093578063af87f505146100f1578063e7d24f0414610137575b600080fd5b61007d6004803603602081101561006757600080fd5b810190808035906020019092919050505061018f565b6040518082815260200191505060405180910390f35b6100c9600480360360408110156100a957600080fd5b81019080803590602001909291908035906020019092919050505061022f565b6040518084815260200183815260200182151515158152602001935050505060405180910390f35b61011d6004803603602081101561010757600080fd5b810190808035906020019092919050505061035b565b604051808215151515815260200191505060405180910390f35b61018d6004803603606081101561014d57600080fd5b810190808035906020019092919080359060200190929190803573ffffffffffffffffffffffffffffffffffffffff1690602001909291905050506103af565b005b6000610199610455565b60008084815260200190815260200160002060405180606001604052908160008201548152602001600182015481526020016002820160009054906101000a900473ffffffffffffffffffffffffffffffffffffffff1673ffffffffffffffffffffffffffffffffffffffff1673ffffffffffffffffffffffffffffffffffffffff168152505090508060200151915050919050565b60008060008060008087815260200190815260200160002090506000339050858260010160008282540192505081905550600160008881526020019081526020016000208190806001815401808255809150509060018203906000526020600020016000909192909190916101000a81548173ffffffffffffffffffffffffffffffffffffffff021916908373ffffffffffffffffffffffffffffffffffffffff160217905550507fcc38cc4a77de9af63aaff2d65be0594388d6be67f9e05a55ecb9524ef577b3f28782604051808381526020018273ffffffffffffffffffffffffffffffffffffffff1673ffffffffffffffffffffffffffffffffffffffff1681526020019250505060405180910390a16000600190508787829550955095505050509250925092565b600080600090506063925060008090505b838110156103a55761039481600073b44becab8629635ece3f30e389c4f3c9657421a46103af565b60019150808060010191505061036c565b5080915050919050565b60405180606001604052808481526020018381526020018273ffffffffffffffffffffffffffffffffffffffff16815250600080858152602001908152602001600020600082015181600001556020820151816001015560408201518160020160006101000a81548173ffffffffffffffffffffffffffffffffffffffff021916908373ffffffffffffffffffffffffffffffffffffffff160217905550905050505050565b60405180606001604052806000815260200160008152602001600073ffffffffffffffffffffffffffffffffffffffff168152509056fea265627a7a7231582086d81626fe9fff83dc20a6eb05a3d8bcc7f88a5dbf5931a07a2009e8bca2b87b64736f6c63430005100032",
  "source": "pragma solidity >=0.5.0;\n\ncontract Delottery {\n    struct Lotto {\n        uint id;\n        uint buyCount;\n        address owner;\n    }\n\n    event BuyLotto(uint id, address buyer);\n    mapping (uint => Lotto) lottos;\n    mapping (uint => address[]) buying;\n\n    function addLotto(\n        uint _id,\n        uint _buyCount,\n        address _owner\n        ) public {\n            lottos[_id] = Lotto({\n            id: _id,\n            buyCount: _buyCount,\n            owner: _owner\n\n        });\n        \n    }\n\n    function addLottoByMaxId(uint _Maxid) public returns (bool) {\n        bool result = false;\n        _Maxid = 99; // only in test maxid = 99\n        for (uint i = 0; i < _Maxid; i ++) {\n            addLotto(i,0,0xB44BEcab8629635ecE3f30E389c4f3C9657421A4);\n            result = true;\n        }\n        return (result);           \n    }\n  \n\n    function getBuyCount(uint _id) public view returns (uint) {\n        Lotto memory lotto = lottos[_id];\n        return (lotto.buyCount);\n    }\n\n    function buyLotto(uint _id,uint price) public returns (uint _buyId,uint _buyprice,bool _buyResult){\n        Lotto storage lotto = lottos[_id];\n        address _buyer = msg.sender;\n        lotto.buyCount += price;\n        buying[_id].push(_buyer);\n        emit BuyLotto(_id, _buyer);\n        bool result = true;\n        return (_id,price,result);\n    }\n\n}\n\n",
  "sourcePath": "/home/fintech/Documents/dapp_project/dcom/DLotto classproject/contracts/Delottery.sol",
  "compiler": {
    "name": "solc",
    "version": "0.5.16+commit.9c3226ce.Emscripten.clang"
  },
  "schemaVersion": "3.3.3",
  "updatedAt": "2021-05-11T12:55:17.754Z",
  "devdoc": {
    "methods": {}
  },
  "userdoc": {
    "methods": {}
  }
}